:10000000A6C00000BFC00000BDC00000BBC0000013
:10001000B9C00000B7C00000B5C00000B3C0000008
:10002000B1C00000AFC00000ADC000007FC4000040
:10003000A9C00000A7C00000A5C00000A3C0000028
:10004000A1C000009FC000009DC000009BC0000038
:1000500099C0000097C0000095C0000093C0000048
:1000600091C000008FC000008DC000008BC0000058
:1000700089C00000240350004F004B004B00450096
:100080004E00200043004F004E00540052004F002D
:100090004C004C004500520000001C0348004F007B
:1000A00052004900200043004F002E002C004C005D
:1000B000540044002E000000040309040902290032
:1000C00001010080FA090400000203000000092178
:1000D0001101000122560007050203400005070533
:1000E000810340000512010002000000400D0F9244
:1000F0000000010102000105010905A1011500250B
:100100000135004501750195100509190129108176
:100110000205012507463B0175049501651409395F
:10012000814265009501810126FF0046FF000930EC
:100130000931093209357508950481020600FF0965
:1001400020950181020A212695089102C000112400
:100150001FBECFEFD2E0DEBFCDBF13E0A0E0B1E025
:10016000E2E9FDE002C005900D92A833B107D9F78E
:1001700023E0A8E3B3E001C01D92AC35B207E1F77C
:1001800071D105C63DCF84B7877F84BF0FB6F89481
:10019000A895809160008861809360001092600053
:1001A0000FBE90E080E80FB6F894809361009093C2
:1001B00061000FBEACC30895089542E360EC82E095
:1001C000E6D242E361EC81E0E2C20895CF93DF938F
:1001D000DC0198E0ED01E92F1992EA95E9F780E852
:1001E00013968C93139714968C93149715968C935F
:1001F000159716968C93169712969C93129780914A
:10020000440390914503181619066CF488E0E7E45E
:10021000F3E001900D928A95E1F78091440390916B
:1002200045030197D0C0809146038230C1F068F445
:10023000882399F0813009F0BCC010923D031092E0
:100240003C0311961C921E9208C0843009F4AEC083
:1002500040F0853009F4BBC0ACC082E0A8C083E0A8
:10026000A6C080913C0390913D0363E070E07ED591
:1002700080509F4FEC0188818630A1F1A8F4823034
:1002800069F150F4882331F1813009F050C08FEFCB
:1002900014968C9314974BC0843071F190F58FEFC6
:1002A00013968C93139743C08A3081F148F48730BA
:1002B000F1F08930E1F58D919C911197806234C005
:1002C0008C3071F140F18E3091F58D919C911197A8
:1002D00080632AC014961C92149729C013961C920E
:1002E000139725C08D919C91119784601DC08D91AD
:1002F0009C911197826018C08D919C911197886094
:1003000013C08D919C91119781600EC08D919C912D
:100310001197926009C08D919C911197916004C0D2
:100320008D919C911197906111969C938E93E09181
:100330003A03F0913B033196F0933B03E0933A0389
:1003400020913C0330913D03C90163E070E00ED57C
:1003500080509F4FEC0189819A818E179F0750F43E
:100360002F5F3F4F30933D0320933C0310923B039C
:1003700010923A0380913C0390913D038D3B91058F
:10038000C4F08BE090E090933D0380933C03109287
:100390003B0310923A0382E08093460380E8139671
:1003A0008C93139714968C93149703C085E08093D5
:1003B000460388E0FD01A7E4B3E001900D928A9521
:1003C000E1F782E090E09093450380934403DF914E
:1003D000CF910895CF93DF93CDB7DEB728970FB6AF
:1003E000F894DEBF0FBECDBF80915303843089F5F2
:1003F00082E08093E9008091E80082FF12C0809142
:10040000E80085FF09C040E050E067E070E0CE0101
:100410000196B8D08111F7CF8091E8008B77809357
:10042000E80081E08093E9008091E80080FF11C03E
:10043000CE010196CBDE40E050E068E070E0CE01F6
:10044000019656D08111F7CF8091E8008E77809386
:10045000E80028960FB6F894DEBF0FBECDBFDF913F
:10046000CF91089590DE7894B5DF66D4FDCF292F23
:10047000332723303105E1F058F42130310599F06C
:100480002230310569F589E290E02CEB30E02CC098
:100490002132310501F12232310511F586E590E076
:1004A00027EF30E021C082E190E025EE30E01CC073
:1004B00099278130910549F028F0029789F4E4E703
:1004C000F0E005C0E8EBF0E002C0EAE9F0E084917A
:1004D00090E09F0109C089E090E02EEC30E004C07C
:1004E00080E090E020E030E0FA013183208308953D
:1004F000CF92DF92EF92FF920F931F93CF93DF93F0
:10050000EC018B017A0197D1811133C0E114F10420
:1005100039F0F70180819181081B190BC80FD91F91
:10052000C12CD12C0115110519F18091E80085FD30
:1005300016C08091E8008E778093E800FDD3E11427
:10054000F10449F0F70180819181C80ED91ED18252
:10055000C08285E00EC06FD1882321F30AC0899143
:100560008093F10001501109FFEFCF1ADF0ADACFB3
:1005700080E0DF91CF911F910F91FF90EF90DF907E
:10058000CF900895CF92DF92EF92FF920F931F9337
:10059000CF93DF93EC018B017A014DD1811133C0F0
:1005A000E114F10439F0F70180819181081B190BE6
:1005B000C80FD91FC12CD12C0115110519F180913B
:1005C000E80085FD16C08091E8008B778093E800F5
:1005D000B3D3E114F10449F0F70180819181C80E91
:1005E000D91ED182C08285E00EC025D1882321F397
:1005F0000AC08091F100899301501109FFEFCF1AD1
:10060000DF0ADACF80E0DF91CF911F910F91FF9049
:10061000EF90DF90CF90089520915A0330915B03C3
:100620002617370748F06115710539F42091E80065
:100630002E772093E80001C0B901FC0120E061158C
:10064000710569F1809153038823E1F18530E1F16F
:100650008091E80083FD3AC08091E80082FD2CC0C3
:100660008091E80080FFEBCF8091F20090E061156F
:10067000710551F08034910538F421912093F100F7
:10068000615071090196F3CF21E08034910509F0A2
:1006900020E08091E8008E778093E800D0CF211190
:1006A000D1CF0AC080915303882361F0853061F077
:1006B0008091E80083FD0AC08091E80082FFF2CFBC
:1006C00080E0089582E0089583E0089581E0089530
:1006D00020915A0330915B032617370748F06115C4
:1006E000710539F42091E8002E772093E80001C0CD
:1006F000B901FC0120E06115710581F1809153037E
:10070000882309F43EC0853009F43DC08091E8009B
:1007100083FD3BC08091E80082FD2DC08091E80000
:1007200080FFE9CF8091F20090E06115710559F0EA
:100730008034910540F424912093F100319661506A
:1007400071090196F2CF21E08034910509F020E093
:100750008091E8008E778093E800CDCF2111CECF35
:100760000AC080915303882361F0853061F0809145
:10077000E80083FD0AC08091E80082FFF2CF80E0AC
:10078000089582E0089583E0089581E00895982F08
:10079000953068F59093E900981739F07091EC0066
:1007A0002091ED005091F00003C0242F762F50E0EF
:1007B00021FD02C09F5FECCF3091EB003E7F309374
:1007C000EB003091ED003D7F3093ED003091EB0078
:1007D00031603093EB007093EC002093ED00509368
:1007E000F0002091EE0027FDE5CF80E008958F70A6
:1007F0008093E90081E008958091540387FF11C040
:100800008091E80082FD05C0809153038111F8CFEB
:1008100011C08091E8008B770BC08091530388232F
:1008200049F08091E80080FFF8CF8091E8008E7752
:100830008093E80008952091E4003091E50095E66A
:100840004091EC00842F817040FF23C08091E8002C
:1008500080FD1DC080915303882399F0853099F065
:100860008091EB0085FD11C04091E4005091E500BE
:100870002417350729F3915011F09A01E1CF84E054
:10088000089582E0089583E0089581E0089580E06E
:1008900008954091E80042FFDDCF089541D043D054
:1008A0008091D8008F778093D8008091D80080689D
:1008B0008093D8008091D8008F7D8093D80084E009
:1008C00089BD86E089BD09B400FEFDCF10925303B7
:1008D00010924F03109251031092500342E360E0D4
:1008E00080E055DF8091E1008E7F8093E100809170
:1008F000E20081608093E2008091E2008860809352
:10090000E2008091E0008E7F8093E0000895E3E6AE
:10091000F0E080818E7F808381E080935203BECFA0
:100920001092E20008951092E10008951F920F9234
:100930000FB60F9211242F933F934F935F936F93B2
:100940007F938F939F93AF93BF93EF93FF93809188
:10095000E10082FF0AC08091E20082FF06C0809120
:10096000E1008B7F8093E100E6D18091E10080FF80
:1009700017C08091E20080FF13C08091E2008E7F5B
:100980008093E2008091E20080618093E200809198
:10099000D80080628093D80019BC109253030CDCFD
:1009A0008091E10084FF2FC08091E20084FF2BC082
:1009B00084E089BD86E089BD09B400FEFDCF809149
:1009C000D8008F7D8093D8008091E1008F7E809346
:1009D000E1008091E2008F7E8093E2008091E2004E
:1009E00081608093E20080914F03882311F084E0BE
:1009F00007C08091E30087FD02C081E001C083E071
:100A000080935303D8DB8091E10083FF22C0809163
:100A1000E20083FF1EC08091E100877F8093E100A8
:100A200082E08093530310924F038091E1008E7F08
:100A30008093E1008091E2008E7F8093E2008091BC
:100A4000E20080618093E20042E360E080E09FDEAC
:100A500072D1FF91EF91BF91AF919F918F917F9153
:100A60006F915F914F913F912F910F900FBE0F901B
:100A70001F9018951F93CF93DF93CDB7DEB7AA973A
:100A80000FB6F894DEBF0FBECDBFE4E5F3E0809172
:100A9000F100819323E0EC35F207C9F796DB8091F2
:100AA000E80083FF30C18091540390915503953045
:100AB00009F483C030F49130A9F168F0933091F1DA
:100AC00022C1983009F4EFC0993009F4FBC0963088
:100AD00009F019C194C0803821F0823809F013C19F
:100AE00008C08091500390915103992389F082604E
:100AF0000FC0809158038F70853008F004C1809337
:100B0000E9008091EB0085FB882780F91092E900CD
:100B10009091E800977F9093E8008093F100109205
:100B2000F100CCC0282F2D7F09F0EDC0882319F0EB
:100B3000823061F0E8C080915603813009F0E3C053
:100B4000933009F080E0809351032EC080915603CA
:100B500081112AC0809158038F702FEF280F243005
:100B600008F0D1C08093E9002091EB0020FF1CC069
:100B7000933021F48091EB00806214C09091EB00DF
:100B800090619093EB0021E030E0A90102C0440F96
:100B9000551F8A95E2F74093EA001092EA0080918F
:100BA000EB0088608093EB001092E9008091E800F0
:100BB000877F8093E80020DEA6C08111A4C0109139
:100BC00056031F778091E3008078812B8093E300A8
:100BD0008091E800877F8093E8000EDE8091E80036
:100BE00080FFFCCF8091E30080688093E3001111C7
:100BF00002C082E001C083E08093530384C0805828
:100C0000823008F080C080915603909157038C3D4C
:100C100053E0950771F583E08A838AE289834FB7B1
:100C2000F894DE01139620E03EE051E2E32FF0E07D
:100C300050935700E49120FF03C0E295EF703F5FAF
:100C4000EF708E2F90E0EA3010F0C79601C0C0968A
:100C50008D939D932F5F243149F74FBF8091E8001A
:100C6000877F8093E8006AE270E0CE010196D4DCD1
:100C700014C06091580370915903AE014F5F5F4FEC
:100C8000F6DBBC01892B09F43EC09091E800977F08
:100C90009093E80089819A811BDD8091E8008B7731
:100CA0008093E80030C0803871F58091E800877F3C
:100CB0008093E80080914F038093F1008091E800D9
:100CC0008E7777CF81111FC0809156039091570383
:100CD00099270297C4F48091E800877F8093E80009
:100CE0008091560380934F0387DD80914F038111DC
:100CF00006C08091E30087FD02C081E001C084E06E
:100D0000809353035ADA8091E80083FF0AC08091F0
:100D1000E800877F8093E8008091EB0080628093F9
:100D2000EB00AA960FB6F894DEBF0FBECDBFDF91E1
:100D3000CF911F9108950895CF93809153038823F5
:100D400099F0C091E900CF709091EC00892F8170EB
:100D500090FD80E8C82B1092E9008091E80083FDA7
:100D600089DECF70C093E900CF9108950024552704
:100D700004C0080E591F880F991F009729F0769517
:100D80006795B8F37105B9F7802D952F0895F894FC
:020D9000FFCF93
:100D92000D96000E05000D96000E05000D9600063C
:100DA20005000D64000C05000D64000605000D64CD
:100DB200000C05000D50000105000D0200030500A6
:100DC2000D01000305000D01000305000D010003E4
:100DD20005000D01000605000D2800015A000D0A4C
:100DE200000605000D14000105000D0500010500B7
:100DF2000D05000105000D05000105000D050006A9
:100E020005000D14000105000D05000105000D058A
:100E1200000605000D14000005000D050003190071
:100E22000D05000605000D05000C05000D5000061D
:100E320005000D3C000705000D05000705000D0526
:100E4200000705000D05000705000D050007050058
:100E52000D05000705000D05000705000D0500073B
:100E620005000D05000705000D05000705000D052D
:100E7200000605000D28000605000D1400010500FE
:100E82000D0A000605000D28000605000D280006C3
:100E920005000D28000605000D28000605000D645A
:100EA200000605000D28000605000D2800060500B5
:100EB2000D28000605000D28000605000D64000639
:100EC20005000D28000605000D28000605000D2866
:100ED200000605000D28000605000D280006050085
:100EE2000D64000605000D28000605000D28000609
:100EF20005000D28000C05000D50000105000D0233
:100F0200000305000D01000305000D0100030500AB
:100F12000D01000305000D01000605000D2800016A
:100F22005A000D0A000605000D14000105000D050A
:100F3200000105000D05000105000D050001050079
:100F42000D05000605000D14000105000D05000148
:100F520005000D05000605000D14000105000D0534
:100F6200000319000D05000605000D05000C050023
:100F72000D50000605000D14000705000D050007C1
:100F820005000D05000705000D05000705000D050C
:100F9200000705000D05000705000D050007050007
:100FA2000D05000705000D05000705000D050007EA
:100FB20005000D05000405000D32000905000D3C79
:080FC200000605000D78000097
:00000001FF
